{
  "_format": "hh-sol-artifact-1",
  "contractName": "Splitwise",
  "sourceName": "contracts/mycontract.sol",
  "abi": [
    {
      "inputs": [
        {
          "internalType": "address",
          "name": "creditor",
          "type": "address"
        },
        {
          "internalType": "uint256",
          "name": "amount",
          "type": "uint256"
        },
        {
          "internalType": "address[]",
          "name": "path",
          "type": "address[]"
        },
        {
          "internalType": "bool",
          "name": "check",
          "type": "bool"
        },
        {
          "internalType": "address",
          "name": "sender",
          "type": "address"
        }
      ],
      "name": "add_IOU",
      "outputs": [],
      "stateMutability": "payable",
      "type": "function"
    },
    {
      "inputs": [
        {
          "internalType": "address",
          "name": "u",
          "type": "address"
        },
        {
          "internalType": "address",
          "name": "v",
          "type": "address"
        }
      ],
      "name": "checkEdge",
      "outputs": [
        {
          "internalType": "bool",
          "name": "",
          "type": "bool"
        }
      ],
      "stateMutability": "view",
      "type": "function"
    },
    {
      "inputs": [
        {
          "internalType": "address",
          "name": "user",
          "type": "address"
        }
      ],
      "name": "getEdge",
      "outputs": [
        {
          "internalType": "address[]",
          "name": "",
          "type": "address[]"
        }
      ],
      "stateMutability": "view",
      "type": "function"
    },
    {
      "inputs": [
        {
          "internalType": "address",
          "name": "user",
          "type": "address"
        }
      ],
      "name": "getLastActive",
      "outputs": [
        {
          "internalType": "uint256",
          "name": "",
          "type": "uint256"
        }
      ],
      "stateMutability": "view",
      "type": "function"
    },
    {
      "inputs": [],
      "name": "getListofUsers",
      "outputs": [
        {
          "internalType": "address[]",
          "name": "",
          "type": "address[]"
        }
      ],
      "stateMutability": "view",
      "type": "function"
    },
    {
      "inputs": [
        {
          "internalType": "address",
          "name": "user",
          "type": "address"
        }
      ],
      "name": "getTotalOwed",
      "outputs": [
        {
          "internalType": "uint256",
          "name": "",
          "type": "uint256"
        }
      ],
      "stateMutability": "view",
      "type": "function"
    },
    {
      "inputs": [
        {
          "internalType": "address",
          "name": "debtor",
          "type": "address"
        },
        {
          "internalType": "address",
          "name": "creditor",
          "type": "address"
        }
      ],
      "name": "lookup",
      "outputs": [
        {
          "internalType": "uint256",
          "name": "",
          "type": "uint256"
        }
      ],
      "stateMutability": "view",
      "type": "function"
    }
  ],
  "bytecode": "0x608060405234801561001057600080fd5b50611b2e806100206000396000f3fe6080604052600436106100705760003560e01c8063713584a61161004e578063713584a61461011a578063738510751461015757806380aaf00514610194578063e09371eb146101d157610070565b8063249f706e146100755780635bc9fd16146100a0578063606ab752146100dd575b600080fd5b34801561008157600080fd5b5061008a6101ed565b6040516100979190611594565b60405180910390f35b3480156100ac57600080fd5b506100c760048036038101906100c291906115ec565b61027b565b6040516100d49190611647565b60405180910390f35b3480156100e957600080fd5b5061010460048036038101906100ff9190611662565b61030f565b60405161011191906116a8565b60405180910390f35b34801561012657600080fd5b50610141600480360381019061013c91906115ec565b610358565b60405161014e91906116a8565b60405180910390f35b34801561016357600080fd5b5061017e60048036038101906101799190611662565b61044d565b60405161018b91906116a8565b60405180910390f35b3480156101a057600080fd5b506101bb60048036038101906101b69190611662565b610496565b6040516101c89190611594565b60405180910390f35b6101eb60048036038101906101e69190611780565b610563565b005b6060600080548060200260200160405190810160405280929190818152602001828054801561027157602002820191906000526020600020905b8160009054906101000a900473ffffffffffffffffffffffffffffffffffffffff1673ffffffffffffffffffffffffffffffffffffffff1681526020019060010190808311610227575b5050505050905090565b6000600660008473ffffffffffffffffffffffffffffffffffffffff1673ffffffffffffffffffffffffffffffffffffffff16815260200190815260200160002060008373ffffffffffffffffffffffffffffffffffffffff1673ffffffffffffffffffffffffffffffffffffffff16815260200190815260200160002060009054906101000a900460ff16905092915050565b6000600460008373ffffffffffffffffffffffffffffffffffffffff1673ffffffffffffffffffffffffffffffffffffffff168152602001908152602001600020549050919050565b60008173ffffffffffffffffffffffffffffffffffffffff168373ffffffffffffffffffffffffffffffffffffffff16036103c8576040517f08c379a00000000000000000000000000000000000000000000000000000000081526004016103bf90611877565b60405180910390fd5b600260008473ffffffffffffffffffffffffffffffffffffffff1673ffffffffffffffffffffffffffffffffffffffff16815260200190815260200160002060008373ffffffffffffffffffffffffffffffffffffffff1673ffffffffffffffffffffffffffffffffffffffff16815260200190815260200160002054905092915050565b6000600360008373ffffffffffffffffffffffffffffffffffffffff1673ffffffffffffffffffffffffffffffffffffffff168152602001908152602001600020549050919050565b6060600560008373ffffffffffffffffffffffffffffffffffffffff1673ffffffffffffffffffffffffffffffffffffffff16815260200190815260200160002080548060200260200160405190810160405280929190818152602001828054801561055757602002820191906000526020600020905b8160009054906101000a900473ffffffffffffffffffffffffffffffffffffffff1673ffffffffffffffffffffffffffffffffffffffff168152602001906001019080831161050d575b50505050509050919050565b8573ffffffffffffffffffffffffffffffffffffffff168173ffffffffffffffffffffffffffffffffffffffff16036105d1576040517f08c379a00000000000000000000000000000000000000000000000000000000081526004016105c890611909565b60405180910390fd5b60008511610614576040517f08c379a000000000000000000000000000000000000000000000000000000000815260040161060b9061199b565b60405180910390fd5b61061d86610d25565b61062681610d25565b61062f86610e3b565b61063881610e3b565b84600360008373ffffffffffffffffffffffffffffffffffffffff1673ffffffffffffffffffffffffffffffffffffffff168152602001908152602001600020600082825461068791906119ea565b9250508190555084600260008373ffffffffffffffffffffffffffffffffffffffff1673ffffffffffffffffffffffffffffffffffffffff16815260200190815260200160002060008873ffffffffffffffffffffffffffffffffffffffff1673ffffffffffffffffffffffffffffffffffffffff168152602001908152602001600020600082825461071a91906119ea565b9250508190555061072b8187610e82565b8115610d1d576000600260008373ffffffffffffffffffffffffffffffffffffffff1673ffffffffffffffffffffffffffffffffffffffff16815260200190815260200160002060008873ffffffffffffffffffffffffffffffffffffffff1673ffffffffffffffffffffffffffffffffffffffff16815260200190815260200160002054905060005b6001868690506107c59190611a1e565b8110156108c7576000600260008888858181106107e5576107e4611a52565b5b90506020020160208101906107fa9190611662565b73ffffffffffffffffffffffffffffffffffffffff1673ffffffffffffffffffffffffffffffffffffffff1681526020019081526020016000206000888860018661084591906119ea565b81811061085557610854611a52565b5b905060200201602081019061086a9190611662565b73ffffffffffffffffffffffffffffffffffffffff1673ffffffffffffffffffffffffffffffffffffffff168152602001908152602001600020549050808311156108b3578092505b5080806108bf90611a81565b9150506107b5565b5080600360008473ffffffffffffffffffffffffffffffffffffffff1673ffffffffffffffffffffffffffffffffffffffff16815260200190815260200160002060008282546109179190611a1e565b9250508190555080600260008473ffffffffffffffffffffffffffffffffffffffff1673ffffffffffffffffffffffffffffffffffffffff16815260200190815260200160002060008973ffffffffffffffffffffffffffffffffffffffff1673ffffffffffffffffffffffffffffffffffffffff16815260200190815260200160002060008282546109aa9190611a1e565b925050819055506000600260008473ffffffffffffffffffffffffffffffffffffffff1673ffffffffffffffffffffffffffffffffffffffff16815260200190815260200160002060008973ffffffffffffffffffffffffffffffffffffffff1673ffffffffffffffffffffffffffffffffffffffff1681526020019081526020016000205403610a4057610a3f828861110d565b5b60005b600186869050610a539190611a1e565b811015610d1a578160036000888885818110610a7257610a71611a52565b5b9050602002016020810190610a879190611662565b73ffffffffffffffffffffffffffffffffffffffff1673ffffffffffffffffffffffffffffffffffffffff1681526020019081526020016000206000828254610ad09190611a1e565b925050819055508160026000888885818110610aef57610aee611a52565b5b9050602002016020810190610b049190611662565b73ffffffffffffffffffffffffffffffffffffffff1673ffffffffffffffffffffffffffffffffffffffff16815260200190815260200160002060008888600186610b4f91906119ea565b818110610b5f57610b5e611a52565b5b9050602002016020810190610b749190611662565b73ffffffffffffffffffffffffffffffffffffffff1673ffffffffffffffffffffffffffffffffffffffff1681526020019081526020016000206000828254610bbd9190611a1e565b92505081905550600060026000888885818110610bdd57610bdc611a52565b5b9050602002016020810190610bf29190611662565b73ffffffffffffffffffffffffffffffffffffffff1673ffffffffffffffffffffffffffffffffffffffff16815260200190815260200160002060008888600186610c3d91906119ea565b818110610c4d57610c4c611a52565b5b9050602002016020810190610c629190611662565b73ffffffffffffffffffffffffffffffffffffffff1673ffffffffffffffffffffffffffffffffffffffff1681526020019081526020016000205403610d0757610d06868683818110610cb857610cb7611a52565b5b9050602002016020810190610ccd9190611662565b8787600185610cdc91906119ea565b818110610cec57610ceb611a52565b5b9050602002016020810190610d019190611662565b61110d565b5b8080610d1290611a81565b915050610a43565b50505b505050505050565b60001515600160008373ffffffffffffffffffffffffffffffffffffffff1673ffffffffffffffffffffffffffffffffffffffff16815260200190815260200160002060009054906101000a900460ff16151503610e385760018060008373ffffffffffffffffffffffffffffffffffffffff1673ffffffffffffffffffffffffffffffffffffffff16815260200190815260200160002060006101000a81548160ff0219169083151502179055506000819080600181540180825580915050600190039060005260206000200160009091909190916101000a81548173ffffffffffffffffffffffffffffffffffffffff021916908373ffffffffffffffffffffffffffffffffffffffff1602179055505b50565b42600460008373ffffffffffffffffffffffffffffffffffffffff1673ffffffffffffffffffffffffffffffffffffffff1681526020019081526020016000208190555050565b600660008373ffffffffffffffffffffffffffffffffffffffff1673ffffffffffffffffffffffffffffffffffffffff16815260200190815260200160002060008273ffffffffffffffffffffffffffffffffffffffff1673ffffffffffffffffffffffffffffffffffffffff16815260200190815260200160002060009054906101000a900460ff16611109576001600660008473ffffffffffffffffffffffffffffffffffffffff1673ffffffffffffffffffffffffffffffffffffffff16815260200190815260200160002060008373ffffffffffffffffffffffffffffffffffffffff1673ffffffffffffffffffffffffffffffffffffffff16815260200190815260200160002060006101000a81548160ff021916908315150217905550600560008373ffffffffffffffffffffffffffffffffffffffff1673ffffffffffffffffffffffffffffffffffffffff16815260200190815260200160002080549050600760008373ffffffffffffffffffffffffffffffffffffffff1673ffffffffffffffffffffffffffffffffffffffff16815260200190815260200160002060008473ffffffffffffffffffffffffffffffffffffffff1673ffffffffffffffffffffffffffffffffffffffff16815260200190815260200160002081905550600560008373ffffffffffffffffffffffffffffffffffffffff1673ffffffffffffffffffffffffffffffffffffffff168152602001908152602001600020819080600181540180825580915050600190039060005260206000200160009091909190916101000a81548173ffffffffffffffffffffffffffffffffffffffff021916908373ffffffffffffffffffffffffffffffffffffffff1602179055505b5050565b6000600760008373ffffffffffffffffffffffffffffffffffffffff1673ffffffffffffffffffffffffffffffffffffffff16815260200190815260200160002060008473ffffffffffffffffffffffffffffffffffffffff1673ffffffffffffffffffffffffffffffffffffffff16815260200190815260200160002054905060006001600560008673ffffffffffffffffffffffffffffffffffffffff1673ffffffffffffffffffffffffffffffffffffffff168152602001908152602001600020805490506111df9190611a1e565b9050808214611385576000600560008673ffffffffffffffffffffffffffffffffffffffff1673ffffffffffffffffffffffffffffffffffffffff168152602001908152602001600020828154811061123b5761123a611a52565b5b9060005260206000200160009054906101000a900473ffffffffffffffffffffffffffffffffffffffff16905080600560008773ffffffffffffffffffffffffffffffffffffffff1673ffffffffffffffffffffffffffffffffffffffff16815260200190815260200160002084815481106112ba576112b9611a52565b5b9060005260206000200160006101000a81548173ffffffffffffffffffffffffffffffffffffffff021916908373ffffffffffffffffffffffffffffffffffffffff16021790555082600760008373ffffffffffffffffffffffffffffffffffffffff1673ffffffffffffffffffffffffffffffffffffffff16815260200190815260200160002060008773ffffffffffffffffffffffffffffffffffffffff1673ffffffffffffffffffffffffffffffffffffffff16815260200190815260200160002081905550505b600560008573ffffffffffffffffffffffffffffffffffffffff1673ffffffffffffffffffffffffffffffffffffffff1681526020019081526020016000208054806113d4576113d3611ac9565b5b6001900381819060005260206000200160006101000a81549073ffffffffffffffffffffffffffffffffffffffff021916905590556000600660008673ffffffffffffffffffffffffffffffffffffffff1673ffffffffffffffffffffffffffffffffffffffff16815260200190815260200160002060008573ffffffffffffffffffffffffffffffffffffffff1673ffffffffffffffffffffffffffffffffffffffff16815260200190815260200160002060006101000a81548160ff02191690831515021790555050505050565b600081519050919050565b600082825260208201905092915050565b6000819050602082019050919050565b600073ffffffffffffffffffffffffffffffffffffffff82169050919050565b60006114fb826114d0565b9050919050565b61150b816114f0565b82525050565b600061151d8383611502565b60208301905092915050565b6000602082019050919050565b6000611541826114a4565b61154b81856114af565b9350611556836114c0565b8060005b8381101561158757815161156e8882611511565b975061157983611529565b92505060018101905061155a565b5085935050505092915050565b600060208201905081810360008301526115ae8184611536565b905092915050565b600080fd5b600080fd5b6115c9816114f0565b81146115d457600080fd5b50565b6000813590506115e6816115c0565b92915050565b60008060408385031215611603576116026115b6565b5b6000611611858286016115d7565b9250506020611622858286016115d7565b9150509250929050565b60008115159050919050565b6116418161162c565b82525050565b600060208201905061165c6000830184611638565b92915050565b600060208284031215611678576116776115b6565b5b6000611686848285016115d7565b91505092915050565b6000819050919050565b6116a28161168f565b82525050565b60006020820190506116bd6000830184611699565b92915050565b6116cc8161168f565b81146116d757600080fd5b50565b6000813590506116e9816116c3565b92915050565b600080fd5b600080fd5b600080fd5b60008083601f840112611714576117136116ef565b5b8235905067ffffffffffffffff811115611731576117306116f4565b5b60208301915083602082028301111561174d5761174c6116f9565b5b9250929050565b61175d8161162c565b811461176857600080fd5b50565b60008135905061177a81611754565b92915050565b60008060008060008060a0878903121561179d5761179c6115b6565b5b60006117ab89828a016115d7565b96505060206117bc89828a016116da565b955050604087013567ffffffffffffffff8111156117dd576117dc6115bb565b5b6117e989828a016116fe565b945094505060606117fc89828a0161176b565b925050608061180d89828a016115d7565b9150509295509295509295565b600082825260208201905092915050565b7f596f75206f776520796f757273656c66206e6f7468696e672100000000000000600082015250565b600061186160198361181a565b915061186c8261182b565b602082019050919050565b6000602082019050818103600083015261189081611854565b9050919050565b7f596f752063616e2774206d616b6520616e20494f5520746f20796f757273656c60008201527f6600000000000000000000000000000000000000000000000000000000000000602082015250565b60006118f360218361181a565b91506118fe82611897565b604082019050919050565b60006020820190508181036000830152611922816118e6565b9050919050565b7f54686520616d6f756e74206f66206d6f6e6579206e65656420746f206265207060008201527f6f73697469766521000000000000000000000000000000000000000000000000602082015250565b600061198560288361181a565b915061199082611929565b604082019050919050565b600060208201905081810360008301526119b481611978565b9050919050565b7f4e487b7100000000000000000000000000000000000000000000000000000000600052601160045260246000fd5b60006119f58261168f565b9150611a008361168f565b9250828201905080821115611a1857611a176119bb565b5b92915050565b6000611a298261168f565b9150611a348361168f565b9250828203905081811115611a4c57611a4b6119bb565b5b92915050565b7f4e487b7100000000000000000000000000000000000000000000000000000000600052603260045260246000fd5b6000611a8c8261168f565b91507fffffffffffffffffffffffffffffffffffffffffffffffffffffffffffffffff8203611abe57611abd6119bb565b5b600182019050919050565b7f4e487b7100000000000000000000000000000000000000000000000000000000600052603160045260246000fdfea26469706673582212209376e1c7d11f55b137daff8fd4ed17cfbdfad81ef587312387b33bc859fdec2f64736f6c63430008110033",
  "linkReferences": {},
  "deployedLinkReferences": {}
}